{
  "_format": "hh-sol-artifact-1",
  "contractName": "MyNFT",
  "sourceName": "contracts/NFT.sol",
  "abi": [
    {
      "inputs": [],
      "stateMutability": "nonpayable",
      "type": "constructor"
    },
    {
      "anonymous": false,
      "inputs": [
        {
          "indexed": true,
          "internalType": "address",
          "name": "owner",
          "type": "address"
        },
        {
          "indexed": true,
          "internalType": "address",
          "name": "approved",
          "type": "address"
        },
        {
          "indexed": true,
          "internalType": "uint256",
          "name": "tokenId",
          "type": "uint256"
        }
      ],
      "name": "Approval",
      "type": "event"
    },
    {
      "anonymous": false,
      "inputs": [
        {
          "indexed": true,
          "internalType": "address",
          "name": "owner",
          "type": "address"
        },
        {
          "indexed": true,
          "internalType": "address",
          "name": "operator",
          "type": "address"
        },
        {
          "indexed": false,
          "internalType": "bool",
          "name": "approved",
          "type": "bool"
        }
      ],
      "name": "ApprovalForAll",
      "type": "event"
    },
    {
      "anonymous": false,
      "inputs": [
        {
          "indexed": true,
          "internalType": "address",
          "name": "previousOwner",
          "type": "address"
        },
        {
          "indexed": true,
          "internalType": "address",
          "name": "newOwner",
          "type": "address"
        }
      ],
      "name": "OwnershipTransferred",
      "type": "event"
    },
    {
      "anonymous": false,
      "inputs": [
        {
          "indexed": true,
          "internalType": "address",
          "name": "from",
          "type": "address"
        },
        {
          "indexed": true,
          "internalType": "address",
          "name": "to",
          "type": "address"
        },
        {
          "indexed": true,
          "internalType": "uint256",
          "name": "tokenId",
          "type": "uint256"
        }
      ],
      "name": "Transfer",
      "type": "event"
    },
    {
      "inputs": [
        {
          "internalType": "address",
          "name": "to",
          "type": "address"
        },
        {
          "internalType": "uint256",
          "name": "tokenId",
          "type": "uint256"
        }
      ],
      "name": "approve",
      "outputs": [],
      "stateMutability": "nonpayable",
      "type": "function"
    },
    {
      "inputs": [
        {
          "internalType": "address",
          "name": "owner",
          "type": "address"
        }
      ],
      "name": "balanceOf",
      "outputs": [
        {
          "internalType": "uint256",
          "name": "",
          "type": "uint256"
        }
      ],
      "stateMutability": "view",
      "type": "function"
    },
    {
      "inputs": [
        {
          "internalType": "uint256",
          "name": "tokenId",
          "type": "uint256"
        }
      ],
      "name": "getApproved",
      "outputs": [
        {
          "internalType": "address",
          "name": "",
          "type": "address"
        }
      ],
      "stateMutability": "view",
      "type": "function"
    },
    {
      "inputs": [
        {
          "internalType": "address",
          "name": "owner",
          "type": "address"
        },
        {
          "internalType": "address",
          "name": "operator",
          "type": "address"
        }
      ],
      "name": "isApprovedForAll",
      "outputs": [
        {
          "internalType": "bool",
          "name": "",
          "type": "bool"
        }
      ],
      "stateMutability": "view",
      "type": "function"
    },
    {
      "inputs": [
        {
          "internalType": "address",
          "name": "recipient",
          "type": "address"
        },
        {
          "internalType": "string",
          "name": "uri",
          "type": "string"
        }
      ],
      "name": "mint",
      "outputs": [
        {
          "internalType": "uint256",
          "name": "",
          "type": "uint256"
        }
      ],
      "stateMutability": "nonpayable",
      "type": "function"
    },
    {
      "inputs": [],
      "name": "name",
      "outputs": [
        {
          "internalType": "string",
          "name": "",
          "type": "string"
        }
      ],
      "stateMutability": "view",
      "type": "function"
    },
    {
      "inputs": [],
      "name": "owner",
      "outputs": [
        {
          "internalType": "address",
          "name": "",
          "type": "address"
        }
      ],
      "stateMutability": "view",
      "type": "function"
    },
    {
      "inputs": [
        {
          "internalType": "uint256",
          "name": "tokenId",
          "type": "uint256"
        }
      ],
      "name": "ownerOf",
      "outputs": [
        {
          "internalType": "address",
          "name": "",
          "type": "address"
        }
      ],
      "stateMutability": "view",
      "type": "function"
    },
    {
      "inputs": [],
      "name": "renounceOwnership",
      "outputs": [],
      "stateMutability": "nonpayable",
      "type": "function"
    },
    {
      "inputs": [
        {
          "internalType": "address",
          "name": "from",
          "type": "address"
        },
        {
          "internalType": "address",
          "name": "to",
          "type": "address"
        },
        {
          "internalType": "uint256",
          "name": "tokenId",
          "type": "uint256"
        }
      ],
      "name": "safeTransferFrom",
      "outputs": [],
      "stateMutability": "nonpayable",
      "type": "function"
    },
    {
      "inputs": [
        {
          "internalType": "address",
          "name": "from",
          "type": "address"
        },
        {
          "internalType": "address",
          "name": "to",
          "type": "address"
        },
        {
          "internalType": "uint256",
          "name": "tokenId",
          "type": "uint256"
        },
        {
          "internalType": "bytes",
          "name": "_data",
          "type": "bytes"
        }
      ],
      "name": "safeTransferFrom",
      "outputs": [],
      "stateMutability": "nonpayable",
      "type": "function"
    },
    {
      "inputs": [
        {
          "internalType": "address",
          "name": "operator",
          "type": "address"
        },
        {
          "internalType": "bool",
          "name": "approved",
          "type": "bool"
        }
      ],
      "name": "setApprovalForAll",
      "outputs": [],
      "stateMutability": "nonpayable",
      "type": "function"
    },
    {
      "inputs": [
        {
          "internalType": "bytes4",
          "name": "interfaceId",
          "type": "bytes4"
        }
      ],
      "name": "supportsInterface",
      "outputs": [
        {
          "internalType": "bool",
          "name": "",
          "type": "bool"
        }
      ],
      "stateMutability": "view",
      "type": "function"
    },
    {
      "inputs": [],
      "name": "symbol",
      "outputs": [
        {
          "internalType": "string",
          "name": "",
          "type": "string"
        }
      ],
      "stateMutability": "view",
      "type": "function"
    },
    {
      "inputs": [
        {
          "internalType": "uint256",
          "name": "index",
          "type": "uint256"
        }
      ],
      "name": "tokenByIndex",
      "outputs": [
        {
          "internalType": "uint256",
          "name": "",
          "type": "uint256"
        }
      ],
      "stateMutability": "view",
      "type": "function"
    },
    {
      "inputs": [
        {
          "internalType": "address",
          "name": "owner",
          "type": "address"
        },
        {
          "internalType": "uint256",
          "name": "index",
          "type": "uint256"
        }
      ],
      "name": "tokenOfOwnerByIndex",
      "outputs": [
        {
          "internalType": "uint256",
          "name": "",
          "type": "uint256"
        }
      ],
      "stateMutability": "view",
      "type": "function"
    },
    {
      "inputs": [
        {
          "internalType": "uint256",
          "name": "tokenId",
          "type": "uint256"
        }
      ],
      "name": "tokenURI",
      "outputs": [
        {
          "internalType": "string",
          "name": "",
          "type": "string"
        }
      ],
      "stateMutability": "view",
      "type": "function"
    },
    {
      "inputs": [],
      "name": "totalSupply",
      "outputs": [
        {
          "internalType": "uint256",
          "name": "",
          "type": "uint256"
        }
      ],
      "stateMutability": "view",
      "type": "function"
    },
    {
      "inputs": [
        {
          "internalType": "address",
          "name": "from",
          "type": "address"
        },
        {
          "internalType": "address",
          "name": "to",
          "type": "address"
        },
        {
          "internalType": "uint256",
          "name": "tokenId",
          "type": "uint256"
        }
      ],
      "name": "transferFrom",
      "outputs": [],
      "stateMutability": "nonpayable",
      "type": "function"
    },
    {
      "inputs": [
        {
          "internalType": "address",
          "name": "newOwner",
          "type": "address"
        }
      ],
      "name": "transferOwnership",
      "outputs": [],
      "stateMutability": "nonpayable",
      "type": "function"
    }
  ],
  "bytecode": "0x60806040523480156200001157600080fd5b506040805180820182526005815264135e53919560da1b6020808301918252835180850190945260048452631353919560e21b9084015281519192916200005b91600091620000de565b50805162000071906001906020840190620000de565b505050600062000086620000da60201b60201c565b600680546001600160a01b0319166001600160a01b038316908117909155604051919250906000907f8be0079c531659141344cd1fd0a4f28419497f9722a3daafe3b4186f6b6457e0908290a350620001c1565b3390565b828054620000ec9062000184565b90600052602060002090601f0160209004810192826200011057600085556200015b565b82601f106200012b57805160ff19168380011785556200015b565b828001600101855582156200015b579182015b828111156200015b5782518255916020019190600101906200013e565b50620001699291506200016d565b5090565b5b808211156200016957600081556001016200016e565b6002810460018216806200019957607f821691505b60208210811415620001bb57634e487b7160e01b600052602260045260246000fd5b50919050565b611ae280620001d16000396000f3fe608060405234801561001057600080fd5b506004361061012c5760003560e01c806370a08231116100ad578063b88d4fde11610071578063b88d4fde14610256578063c87b56dd14610269578063d0def5211461027c578063e985e9c51461028f578063f2fde38b146102a25761012c565b806370a0823114610218578063715018a61461022b5780638da5cb5b1461023357806395d89b411461023b578063a22cb465146102435761012c565b806323b872dd116100f457806323b872dd146101b95780632f745c59146101cc57806342842e0e146101df5780634f6ccce7146101f25780636352211e146102055761012c565b806301ffc9a71461013157806306fdde031461015a578063081812fc1461016f578063095ea7b31461018f57806318160ddd146101a4575b600080fd5b61014461013f3660046113ed565b6102b5565b60405161015191906114d9565b60405180910390f35b6101626102c8565b60405161015191906114e4565b61018261017d366004611425565b61035a565b6040516101519190611488565b6101a261019d3660046113c4565b6103a6565b005b6101ac61043e565b60405161015191906119f4565b6101a26101c7366004611277565b610444565b6101ac6101da3660046113c4565b61047c565b6101a26101ed366004611277565b6104ce565b6101ac610200366004611425565b6104e9565b610182610213366004611425565b610544565b6101ac61022636600461122b565b610579565b6101a26105bd565b610182610646565b610162610655565b6101a261025136600461132b565b610664565b6101a26102643660046112b2565b610732565b610162610277366004611425565b610771565b6101ac61028a366004611365565b610837565b61014461029d366004611245565b61086c565b6101a26102b036600461122b565b61089a565b60006102c08261095b565b90505b919050565b6060600080546102d790611a2c565b80601f016020809104026020016040519081016040528092919081815260200182805461030390611a2c565b80156103505780601f1061032557610100808354040283529160200191610350565b820191906000526020600020905b81548152906001019060200180831161033357829003601f168201915b5050505050905090565b600061036582610980565b61038a5760405162461bcd60e51b8152600401610381906117fd565b60405180910390fd5b506000908152600460205260409020546001600160a01b031690565b60006103b182610544565b9050806001600160a01b0316836001600160a01b031614156103e55760405162461bcd60e51b815260040161038190611916565b806001600160a01b03166103f761099d565b6001600160a01b0316148061041357506104138161029d61099d565b61042f5760405162461bcd60e51b8152600401610381906116d8565b61043983836109a1565b505050565b60095490565b61045561044f61099d565b82610a0f565b6104715760405162461bcd60e51b815260040161038190611957565b610439838383610a94565b600061048783610579565b82106104a55760405162461bcd60e51b8152600401610381906114f7565b506001600160a01b03919091166000908152600760209081526040808320938352929052205490565b61043983838360405180602001604052806000815250610732565b60006104f361043e565b82106105115760405162461bcd60e51b8152600401610381906119a8565b6009828154811061053257634e487b7160e01b600052603260045260246000fd5b90600052602060002001549050919050565b6000818152600260205260408120546001600160a01b0316806102c05760405162461bcd60e51b81526004016103819061177f565b60006001600160a01b0382166105a15760405162461bcd60e51b815260040161038190611735565b506001600160a01b031660009081526003602052604090205490565b6105c561099d565b6001600160a01b03166105d6610646565b6001600160a01b0316146105fc5760405162461bcd60e51b815260040161038190611849565b6006546040516000916001600160a01b0316907f8be0079c531659141344cd1fd0a4f28419497f9722a3daafe3b4186f6b6457e0908390a3600680546001600160a01b0319169055565b6006546001600160a01b031690565b6060600180546102d790611a2c565b61066c61099d565b6001600160a01b0316826001600160a01b0316141561069d5760405162461bcd60e51b815260040161038190611655565b80600560006106aa61099d565b6001600160a01b03908116825260208083019390935260409182016000908120918716808252919093529120805460ff1916921515929092179091556106ee61099d565b6001600160a01b03167f17307eab39ab6107e8899845ad3d59bd9653f200f220920489ca2b5937696c318360405161072691906114d9565b60405180910390a35050565b61074361073d61099d565b83610a0f565b61075f5760405162461bcd60e51b815260040161038190611957565b61076b84848484610bc1565b50505050565b606061077c82610980565b6107985760405162461bcd60e51b8152600401610381906118c7565b6000828152600c6020526040812080546107b190611a2c565b80601f01602080910402602001604051908101604052809291908181526020018280546107dd90611a2c565b801561082a5780601f106107ff5761010080835404028352916020019161082a565b820191906000526020600020905b81548152906001019060200180831161080d57829003601f168201915b5093979650505050505050565b6000610843600b610bf4565b600061084f600b610bfd565b905061085b8482610c01565b6108658184610ce0565b9392505050565b6001600160a01b03918216600090815260056020908152604080832093909416825291909152205460ff1690565b6108a261099d565b6001600160a01b03166108b3610646565b6001600160a01b0316146108d95760405162461bcd60e51b815260040161038190611849565b6001600160a01b0381166108ff5760405162461bcd60e51b815260040161038190611594565b6006546040516001600160a01b038084169216907f8be0079c531659141344cd1fd0a4f28419497f9722a3daafe3b4186f6b6457e090600090a3600680546001600160a01b0319166001600160a01b0392909216919091179055565b60006001600160e01b0319821663780e9d6360e01b14806102c057506102c082610cff565b6000908152600260205260409020546001600160a01b0316151590565b3390565b600081815260046020526040902080546001600160a01b0319166001600160a01b03841690811790915581906109d682610544565b6001600160a01b03167f8c5be1e5ebec7d5bd14f71427d1e84f3dd0314c0f7b2291e5b200ac8c7c3b92560405160405180910390a45050565b6000610a1a82610980565b610a365760405162461bcd60e51b81526004016103819061168c565b6000610a4183610544565b9050806001600160a01b0316846001600160a01b03161480610a7c5750836001600160a01b0316610a718461035a565b6001600160a01b0316145b80610a8c5750610a8c818561086c565b949350505050565b826001600160a01b0316610aa782610544565b6001600160a01b031614610acd5760405162461bcd60e51b81526004016103819061187e565b6001600160a01b038216610af35760405162461bcd60e51b815260040161038190611611565b610afe838383610d3f565b610b096000826109a1565b6001600160a01b0383166000908152600360205260408120805460019290610b32908490611a15565b90915550506001600160a01b0382166000908152600360205260408120805460019290610b609084906119fd565b909155505060008181526002602052604080822080546001600160a01b0319166001600160a01b0386811691821790925591518493918716917fddf252ad1be2c89b69c2b068fc378daa952ba7f163c4a11628f55a4df523b3ef91a4505050565b610bcc848484610a94565b610bd884848484610d4a565b61076b5760405162461bcd60e51b815260040161038190611542565b80546001019055565b5490565b6001600160a01b038216610c275760405162461bcd60e51b8152600401610381906117c8565b610c3081610980565b15610c4d5760405162461bcd60e51b8152600401610381906115da565b610c5960008383610d3f565b6001600160a01b0382166000908152600360205260408120805460019290610c829084906119fd565b909155505060008181526002602052604080822080546001600160a01b0319166001600160a01b03861690811790915590518392907fddf252ad1be2c89b69c2b068fc378daa952ba7f163c4a11628f55a4df523b3ef908290a45050565b6000828152600c6020908152604090912082516104399284019061110b565b60006001600160e01b031982166380ac58cd60e01b1480610d3057506001600160e01b03198216635b5e139f60e01b145b806102c057506102c082610e65565b610439838383610e7e565b6000610d5e846001600160a01b0316610f07565b15610e5a57836001600160a01b031663150b7a02610d7a61099d565b8786866040518563ffffffff1660e01b8152600401610d9c949392919061149c565b602060405180830381600087803b158015610db657600080fd5b505af1925050508015610de6575060408051601f3d908101601f19168201909252610de391810190611409565b60015b610e40573d808015610e14576040519150601f19603f3d011682016040523d82523d6000602084013e610e19565b606091505b508051610e385760405162461bcd60e51b815260040161038190611542565b805181602001fd5b6001600160e01b031916630a85bd0160e11b149050610a8c565b506001949350505050565b6001600160e01b031981166301ffc9a760e01b14919050565b610e89838383610439565b6001600160a01b038316610ea557610ea081610f0d565b610ec8565b816001600160a01b0316836001600160a01b031614610ec857610ec88382610f51565b6001600160a01b038216610ee457610edf81610fee565b610439565b826001600160a01b0316826001600160a01b0316146104395761043982826110c7565b3b151590565b600980546000838152600a60205260408120829055600182018355919091527f6e1540171b6c0c960b71a7020d9f60077f6af931a8bbf590da0223dacf75c7af0155565b60006001610f5e84610579565b610f689190611a15565b600083815260086020526040902054909150808214610fbb576001600160a01b03841660009081526007602090815260408083208584528252808320548484528184208190558352600890915290208190555b5060009182526008602090815260408084208490556001600160a01b039094168352600781528383209183525290812055565b60095460009061100090600190611a15565b6000838152600a60205260408120546009805493945090928490811061103657634e487b7160e01b600052603260045260246000fd5b90600052602060002001549050806009838154811061106557634e487b7160e01b600052603260045260246000fd5b6000918252602080832090910192909255828152600a909152604080822084905585825281205560098054806110ab57634e487b7160e01b600052603160045260246000fd5b6001900381819060005260206000200160009055905550505050565b60006110d283610579565b6001600160a01b039093166000908152600760209081526040808320868452825280832085905593825260089052919091209190915550565b82805461111790611a2c565b90600052602060002090601f016020900481019282611139576000855561117f565b82601f1061115257805160ff191683800117855561117f565b8280016001018555821561117f579182015b8281111561117f578251825591602001919060010190611164565b5061118b92915061118f565b5090565b5b8082111561118b5760008155600101611190565b600067ffffffffffffffff808411156111bf576111bf611a7d565b604051601f8501601f1916810160200182811182821017156111e3576111e3611a7d565b6040528481529150818385018610156111fb57600080fd5b8484602083013760006020868301015250509392505050565b80356001600160a01b03811681146102c357600080fd5b60006020828403121561123c578081fd5b61086582611214565b60008060408385031215611257578081fd5b61126083611214565b915061126e60208401611214565b90509250929050565b60008060006060848603121561128b578081fd5b61129484611214565b92506112a260208501611214565b9150604084013590509250925092565b600080600080608085870312156112c7578081fd5b6112d085611214565b93506112de60208601611214565b925060408501359150606085013567ffffffffffffffff811115611300578182fd5b8501601f81018713611310578182fd5b61131f878235602084016111a4565b91505092959194509250565b6000806040838503121561133d578182fd5b61134683611214565b91506020830135801515811461135a578182fd5b809150509250929050565b60008060408385031215611377578182fd5b61138083611214565b9150602083013567ffffffffffffffff81111561139b578182fd5b8301601f810185136113ab578182fd5b6113ba858235602084016111a4565b9150509250929050565b600080604083850312156113d6578182fd5b6113df83611214565b946020939093013593505050565b6000602082840312156113fe578081fd5b813561086581611a93565b60006020828403121561141a578081fd5b815161086581611a93565b600060208284031215611436578081fd5b5035919050565b60008151808452815b8181101561146257602081850181015186830182015201611446565b818111156114735782602083870101525b50601f01601f19169290920160200192915050565b6001600160a01b0391909116815260200190565b6001600160a01b03858116825284166020820152604081018390526080606082018190526000906114cf9083018461143d565b9695505050505050565b901515815260200190565b600060208252610865602083018461143d565b6020808252602b908201527f455243373231456e756d657261626c653a206f776e657220696e646578206f7560408201526a74206f6620626f756e647360a81b606082015260800190565b60208082526032908201527f4552433732313a207472616e7366657220746f206e6f6e20455243373231526560408201527131b2b4bb32b91034b6b83632b6b2b73a32b960711b606082015260800190565b60208082526026908201527f4f776e61626c653a206e6577206f776e657220697320746865207a65726f206160408201526564647265737360d01b606082015260800190565b6020808252601c908201527f4552433732313a20746f6b656e20616c7265616479206d696e74656400000000604082015260600190565b60208082526024908201527f4552433732313a207472616e7366657220746f20746865207a65726f206164646040820152637265737360e01b606082015260800190565b60208082526019908201527f4552433732313a20617070726f766520746f2063616c6c657200000000000000604082015260600190565b6020808252602c908201527f4552433732313a206f70657261746f7220717565727920666f72206e6f6e657860408201526b34b9ba32b73a103a37b5b2b760a11b606082015260800190565b60208082526038908201527f4552433732313a20617070726f76652063616c6c6572206973206e6f74206f7760408201527f6e6572206e6f7220617070726f76656420666f7220616c6c0000000000000000606082015260800190565b6020808252602a908201527f4552433732313a2062616c616e636520717565727920666f7220746865207a65604082015269726f206164647265737360b01b606082015260800190565b60208082526029908201527f4552433732313a206f776e657220717565727920666f72206e6f6e657869737460408201526832b73a103a37b5b2b760b91b606082015260800190565b6020808252818101527f4552433732313a206d696e7420746f20746865207a65726f2061646472657373604082015260600190565b6020808252602c908201527f4552433732313a20617070726f76656420717565727920666f72206e6f6e657860408201526b34b9ba32b73a103a37b5b2b760a11b606082015260800190565b6020808252818101527f4f776e61626c653a2063616c6c6572206973206e6f7420746865206f776e6572604082015260600190565b60208082526029908201527f4552433732313a207472616e73666572206f6620746f6b656e2074686174206960408201526839903737ba1037bbb760b91b606082015260800190565b6020808252602f908201527f4552433732314d657461646174613a2055524920717565727920666f72206e6f60408201526e3732bc34b9ba32b73a103a37b5b2b760891b606082015260800190565b60208082526021908201527f4552433732313a20617070726f76616c20746f2063757272656e74206f776e656040820152603960f91b606082015260800190565b60208082526031908201527f4552433732313a207472616e736665722063616c6c6572206973206e6f74206f6040820152701ddb995c881b9bdc88185c1c1c9bdd9959607a1b606082015260800190565b6020808252602c908201527f455243373231456e756d657261626c653a20676c6f62616c20696e646578206f60408201526b7574206f6620626f756e647360a01b606082015260800190565b90815260200190565b60008219821115611a1057611a10611a67565b500190565b600082821015611a2757611a27611a67565b500390565b600281046001821680611a4057607f821691505b60208210811415611a6157634e487b7160e01b600052602260045260246000fd5b50919050565b634e487b7160e01b600052601160045260246000fd5b634e487b7160e01b600052604160045260246000fd5b6001600160e01b031981168114611aa957600080fd5b5056fea2646970667358221220f440a0ee80be7e13f678d8e404401f702d0ceba55aeca60459939728bb47bd4464736f6c63430008000033",
  "linkReferences": {},
  "deployedLinkReferences": {}
}